:10000000FF004C6174746963650069434563756200
:10001000653220323031372E30312E32373931349B
:1000200000506172743A20694345354C50344B2D71
:10003000535747333600446174653A204665622061
:10004000313420323031392031343A32343A00FF01
:100050003439007EAA997E51000105920020620287
:10006000B37200B082000011000101000000000026
:100070000000000000001000000000000040000030
:10008000000000010000000000000400000000006B
:100090000010000000000000400000000010000000
:1000A000000300004000000000000100000000000C
:1000B00000040000000000001000004000000000EC
:1000C000000000000000000000000000020000002E
:1000D00000000008000000000000200000000000F8
:1000E0000080000000000002000000000000080086
:1000F00000000002000000000800000000000000F6
:10010000002000000000000080000000000002004D
:1001100000000000000800000000000000000000D7
:1001200000000000000000000000000000000000CF
:1001300000000000000000000000000000000000BF
:1001400000000000000000000000000000000000AF
:10015000000000000000000000000000000000009F
:10016000000000000000000040000000000000004F
:10017000000000000000000000000000000000007F
:10018000000000000000000000000000000000006F
:10019000000000000000000000000000000000005F
:1001A000000000000000000000000000000000004F
:1001B000000000000000000000000000000000003F
:1001C000000000000000000000000000000000002F
:1001D000000000000000000000000000000000001F
:1001E000000000000000000000000000000000000F
:1001F00000000000000000000000000000000000FF
:1002000000000000000000000000000000000000EE
:10021000000000000080000000000000000000005E
:1002200000000000000000000000000000000000CE
:1002300000000000000000000000000000000000BE
:1002400000000000000000000000000000000000AE
:10025000000000000000000000000000000000009E
:10026000000000000000000000000000000000404E
:10027000000000000000000000000000000000007E
:10028000000000000000000000000000000000006E
:100290000000000000000000000000000F0000004F
:1002A000000000000000000001000000000000004D
:1002B000000000000000000000000000000000003E
:1002C000000000000100000000000000000000002D
:1002D000000000000000000000000000000000001E
:1002E000000000000000000000000000000000000E
:1002F00000000080000000000000000000000080FE
:1003000000000000000000000000000000000000ED
:1003100000000000000000000000000000000000DD
:1003200000000000000000000000000000000000CD
:1003300000000000000000000000000000000000BD
:1003400000000000000000000000000000000000AD
:10035000000000000000010000000000000000009C
:10036000000000000000000000000000000000008D
:10037000000000000000000000000000000000007D
:10038000000000000000000000000000000000006D
:10039000000000000000000000000000000000005D
:1003A000000000000000000000000000000000004D
:1003B000000000000000000000000000000000003D
:1003C000000000000000000000000000000000002D
:1003D000000000000000000000000000000000001D
:1003E000000000000000000000000000000000000D
:1003F000000000000000000000800000000000007D
:1004000000400000070000000000000000000000A5
:1004100000000000000000000000000000000000DC
:1004200000000000000000000000000000000000CC
:1004300000000000000000000000000000000000BC
:1004400000000000000000000000000000000004A8
:100450000000000000000004000000700000000028
:10046000000000000000000000000000000000008C
:10047000000000000000000000000000000000007C
:10048000000000000000000000000000000000006C
:10049000000000000000000000000000000000005C
:1004A000000000000000000000000000000000004C
:1004B000000000000000000000000000000000003C
:1004C000000000000000000000000000000000002C
:1004D000000000000000000000000000000000001C
:1004E000000000000000000000000000000000000C
:1004F00000000000000000000000000000000000FC
:1005000000000000040000000000000000000000E7
:1005100000000000000000000000000000000000DB
:1005200000000000000000000000000000000000CB
:1005300000000000000000000000000000000000BB
:1005400000000000000000000000000000000000AB
:10055000000000000000000000000000000100009A
:10056000000000000000000000000000000000008B
:10057000000000000000000100000000000000007A
:10058000000000000000000000000000000000006B
:10059000000000000000000000000000000000005B
:1005A000000000000000000000000000000000004B
:1005B0000008000000000000000000000000000033
:1005C00000000000000000000000000000008000AB
:1005D000000000000000000C3020000000000000BF
:1005E000000000000000000000000000000000000B
:1005F00000000000000000000000000000000000FB
:10060000000000008328000000000000000000003F
:1006100000000000000000000000000000001E13A9
:100620002800000000000000000000000000C300DF
:1006300000000000000000000000000000000000BA
:1006400000000000000000000000000000000000AA
:100650000000000000000000000009014000000050
:10066000000000000000000000000000000000008A
:100670000000000000008280000000000000000078
:10068000000000000C30200000000000000000000E
:10069000000000000000000000000000000000005A
:1006A00000000000000000000000000000028000C8
:1006B00001003FD00000000000000000000000002A
:1006C000000000000000000002800000003FD00099
:1006D0000000000000000000000000C30000000057
:1006E000000000000000000000000000000000000A
:1006F00000000000000000000000000000000000FA
:10070000000000000800008003FC00000000000062
:1007100000000800000000000000000000000008C9
:1007200000000003FC0000000000000000000000CA
:10073000000C30200000000000000000000000005D
:1007400000000000000000000000000000000000A9
:100750000000000000000000000000000000000099
:100760000000000000000000000000000000000089
:100770000000000000000000000000000000000079
:100780000000000000000000C300000000000000A6
:100790000000000000000000000000000000000059
:1007A0000000000000000000000000000000000049
:1007B0000000000000000000000000000000000039
:1007C0000000000000000000000000000000000029
:1007D00000000000000000000000000000000C30DD
:1007E00020000000000000000000000000000000E9
:1007F00000000000000000000000000000000000F9
:1008000000000000000000000000000000000000E8
:1008100000000000000000000000000000000000D8
:1008200000000000000000000000000000000000C8
:100830000000000000C300000000000000000000F5
:1008400000000000000000000000000000000000A8
:100850000000000000000000000000000000000098
:100860000000000000000000000000000000000088
:100870000000000000000000000000000000000078
:1008800000000000000000000000000C302000000C
:100890000000000000000000000000000000000058
:1008A0000000000000000000000000000000000048
:1008B00000000000000001800000000000000000B7
:1008C0000000000000000000000000000000000028
:1008D0000001800000000000000000000000000097
:1008E0000000C30000000000000000000000000045
:1008F00000000000000000000000000000000000F8
:1009000000000000000000000000000000F00000F7
:1009100000000000000000000000000000000000D7
:100920000000000000000000F000000000000000D7
:1009300000000000000000000C302000000000005B
:1009400000000000000000000000000000000000A7
:100950000000000000000000000000000000000097
:100960000000000B803F2800400000000000000055
:100970000000000000000000000000000000000077
:10098000000000000000000000000000000000C3A4
:100990000000000000000000000000000000000057
:1009A0000000000000000000000000000000000047
:1009B0000000000000000000000038AF80000000D0
:1009C0000000000000000000000000000000000027
:1009D0000000000000000000000000000000000017
:1009E00000000000000C30200000000000000000AB
:1009F00000000000000000000000000000000000F7
:100A000000000000000000000000000000000000E6
:100A100000010703C000000000000000000000000B
:100A200000000000000000000000000000000000C6
:100A3000000000000000000000000000C3000000F3
:100A400000000000000000000000000000000000A6
:100A50000000000000000000000000000000000096
:100A60000000000000000000D0003C00000000007A
:100A70000000000000000000000000000000000076
:100A80000000000000000000000000000000000066
:100A900000000C30200000000000000000000000FA
:100AA0000000000000000000000000000000000046
:100AB0000000000000000000000000000000000036
:100AC0000000000000000000000000000000000026
:100AD0000000000000000000000000000000000016
:100AE000000000000000000000C300000000000043
:100AF00000000000000000000000000000000000F6
:100B000000000000000000000000000000000000E5
:100B100000000000000000000000000000000000D5
:100B200000000000000000000000000000000000C5
:100B30000000000000000000000000000000000CA9
:100B40003020000000000000000000000000000055
:100B50000000000000000000000000000000000095
:100B60000000000000000000000005005000200010
:100B70000000017E504000000197000200000207C3
:100B80001C850C00000000000000000000000000B8
:100B9000000000000000C300000000000000000092
:100BA0000000000000000000000000000000000045
:100BB0000000000000000000000000000000000035
:100BC00000D8008000080000000D0005100000089B
:100BD00000000080002C40400542000000000000A2
:100BE0000000000000000000000000000C302000A9
:100BF00000000000000000000000000000000000F5
:100C000000000000000000000000000000000000E4
:100C1000000000000000800D003A3C2002000000AF
:100C2000000000000000070002002000001C850CEE
:100C300000000000000000000000000000000000B4
:100C4000000000C3000000000000000000000000E1
:100C50000000000000000000000000000000000094
:100C6000000000000000000000000000000018006C
:100C700083C00000000000000000000000034000EE
:100C800000000002400540000000000000000000DD
:100C90000000000000000000000C302000000000F8
:100CA0000000000000000000000000000000000044
:100CB0000000000000000000000000000000000034
:100CC0000000000000001A3C200000160000000098
:100CD00000007007703E00400003D4850C00000047
:100CE0000000000000000000000000000000000004
:100CF000C300000000000000000000000000000031
:100D000000000000000000000000000000000000E3
:100D1000000000000000000000000000B003C00060
:100D2000000000000000000000800A43C00C00002A
:100D300020600540000000000000000000000000EE
:100D40000000000000000C30200000000000000047
:100D50000000000000000000000000000000000093
:100D60000000000000000000000000000000000083
:100D7000000000123C200000206000000000000184
:100D8000A7683E000000705C850C000000000000B9
:100D900000000000000000000000000000C3000090
:100DA0000000000000000000000000000000000043
:100DB0000000000000000000000000000000000033
:100DC0000000000000000000000003C0000001401F
:100DD000000000000000000E43C00000002260057B
:100DE00040000000000000000000000000000000C3
:100DF0000000000C30200000000000000000000097
:100E000000000000000000000000000000000000E2
:100E100000000000000000000000000000000000D2
:100E2000126DD000001400000000000001CF856AA0
:100E3000000004001E850C000000000000000000FF
:100E400000000000000000000000C30000000000DF
:100E50000000000000000000000000000000000092
:100E60000000000000000000000000000000000082
:100E70000000000000000F22950000036000000049
:100E800000000010B32940000000004005400000B1
:100E90000000000000000000000000000000000052
:100EA0000C302000000000000000000000000000E6
:100EB0000000000000000000000000000000000032
:100EC00000000000000040000000000001000000E1
:100ED000004000040000000000D007800200000075
:100EE0000016850C0000000000000000000000005B
:100EF00000000000000000C300000000000000002F
:100F000000000000000000000000000000000000E1
:100F100000000000000000000000000008000000C9
:100F2000000000A00000000201C200000000000557
:100F30008B0340000000000240054000000000005C
:100F4000000000000000000000000000000C302045
:100F50000000000000000000000000000000000091
:100F60000000000000000000000000000000000081
:100F70000000000000000000001E00000000000053
:100F800000DFA7400000D9B30002000012661685FA
:100F90000C00000000000000000000000000000045
:100FA00000000000C300000000000000000000007E
:100FB0000000000000000000000000000000000031
:100FC0000000000000000000000000000000000120
:100FD0000000000000000015DAD40000050A0A80B5
:100FE00000000084006005600000000000000000B8
:100FF000000000000000000000000C302000000095
:1010000000000000000000000000000000000000E0
:1010100000000000000000000000000000000000D0
:10102000000000030000000000000C000004FAFAB9
:10103000400000D9A7800200C002061E850C0000F7
:1010400000000000000000000000000000000000A0
:1010500000C30000000000000000000000000000CD
:101060000000000000000000000000000000000080
:101070000000000000000000000020000000000050
:1010800000800003410FAC000001000B400008008D
:1010900004026005400000000000000000000000A5
:1010A000000000000000000C3020000000000000E4
:1010B0000000000000000000000000000000000030
:1010C0000000000000000000000000000000000020
:1010D0000000000A526D500000003C5BC10000009F
:1010E00000058002000000003C850C0000000000AC
:1010F000000000000001DA0AC00000000000C30088
:1011000000000000000000000000000000000000DF
:1011100000000000000000000000000000000000CF
:1011200000000000000000000000E77D79000000E2
:101130000226EC00000000000B000100000025C0AA
:101140000544000000000000000000000000A42092
:10115000000000000C302000000000000000000033
:10116000000000000000000000000000000000007F
:1011700000000000000000000000000000008000EF
:101180000017C040020034034EA54280000007044F
:1011900002002000003C850C0000001E0000000240
:1011A000000003C850C00000000000C300000000A1
:1011B000000000000000000000000000000000002F
:1011C000000000000000000000000000000000001F
:1011D0000000000000000005E800000000600404BA
:1011E000550400000002C00000000000C0054000DF
:1011F0000001000000000003C014005400000000C3
:10120000000C302000000000000000000000000082
:1012100000000000000000000000000000000000CE
:101220000000000000000000000000000800B3B44F
:10123000D2800006001CA0000000000580020050C3
:10124000000674850C000000000000000400003F50
:101250004850C00000000000C30000000000000073
:10126000000000000000000000000000000000007E
:10127000000000000000000000000000000000006E
:1012800000000010AF431D000000003D05000000FD
:1012900000000B400004000021E0054000000000B9
:1012A000000000C0000206005400000000000C30E6
:1012B000200000000000000000000000000000000E
:1012C000000000000000000000000000000000001E
:1012D000000000000000000000000000000000000E
:1012E00000000EA00000000007040200000000340F
:1012F00085040000000000000000000607C850C080
:101300000000000000C3000000000000000000001A
:1013100000000000000000000000000000000000CD
:1013200000000000000000000000000000000000BD
:1013300050000000000003402D05010000000E0ACF
:10134000C00000000000E0054100000000000000B7
:101350000003C216005400000000000C3020000002
:10136000000000000000000000000000000000007D
:10137000000000000000000000000000000000006D
:10138000000000000000038000000000000E780C48
:10139000F0400000801023C00400000000000000A6
:1013A00000000000000000000003E850C000000042
:1013B0000000C3000000000000000000000000006A
:1013C000000000000000000000000000000000001D
:1013D0000000000000000000000000000008000005
:1013E0000000000020010F040000050A003C00502E
:1013F000000000000000000000B00000000000003D
:1014000004005400000000000C3020000000000028
:1014100000000000000000000000000000000000CC
:1014200000000000000000000000000000000000BC
:10143000000000018077E9D000000620F9DB4000C1
:101440000400000000000401C0000000000003814F
:10145000BB4600000000036850C00000000000C34D
:10146000000000000000000000000000000000007C
:10147000000000000000000000000000000000006C
:1014800000000000000000000000000D72B5200008
:101490000007CEC47C000000000000000020000017
:1014A000000000000000C3E44000000000140054ED
:1014B00000000000000C30200000000000000000D0
:1014C000000000000000000000000000000000001C
:1014D000000000000000000000000000000000000C
:1014E000018100000000001C22DFA040000059A084
:1014F000000000002260000000000000000000006A
:10150000000026636850C00000000000C300000017
:1015100000000000000000000000000000000000CB
:1015200000000000000000000000000000000000BB
:101530000000000000000000800000000000040522
:10154000DE24000000000000000000050000000094
:1015500000000000000000000040060054000000F1
:1015600000000C302000000000000000000000001F
:10157000000000000000000000000000000000006B
:1015800000000000000000000000000300000A004E
:1015900000000C0004040000000000000000000037
:1015A000C009C0000000000000000000000400208E
:1015B00063E850C00000000000C30000000000000D
:1015C000000000000000000000000000000000001B
:1015D000000000000000000000000000000000000B
:1015E0000000200000000000008000020000000059
:1015F000000000000000080940000000000000009A
:101600000000000080004016005400000000000CA4
:10161000302000000000000000000000000000007A
:1016200000000000000000000000000000000000BA
:1016300000000000000000000000000072A812007E
:10164000001C38FC0A100000000000000000000030
:101650003EF0800800000057F3D800000007C85093
:10166000C00000000000C3000000000000000000F7
:10167000000000000000000000000000000000006A
:101680000000000001000000000000000000000059
:1016900000000B0297000000268100A0000000005F
:1016A00000000000000003EC00000000000F6AFDD5
:1016B00000000003AC005440000000000C3020008B
:1016C000000000000000000000000000000000001A
:1016D000000000000000000000000000000000000A
:1016E000000000000000800000000000000000007A
:1016F0006C2202090000000000002008001FF0809A
:1017000000800500000000020E0001C850C000006B
:10171000000000C300000000000000000000000006
:1017200000000000000000000000000000000000B9
:1017300000000000000000000000000000000000A9
:101740000000000001403508800028000000000073
:1017500000014C01DE00000000000000000000005D
:10176000000C005400000000000C302000000000BD
:101770000000000000000000000000000000000069
:101780000000000000000000000000000000014018
:10179000000003000000000000000014004C4102A3
:1017A000300000000000000000003DF000000000DC
:1017B0000A000000040000674850C000000000005C
:1017C000C300000000000000000000000000000056
:1017D0000000000000000000000000000000000009
:1017E0000000000000000000003000D000000000F9
:1017F000000003C30410830000000000000000008C
:1018000003CE0800000071000000004000022E001E
:101810005400000000000C30200000000000000018
:1018200000000000000000000000000000000000B8
:1018300000000000000000000000000000000000A8
:101840000000000000000000000400000000000094
:1018500000000000000800000000001007800000E9
:1018600000004000014850400000000000C300009C
:101870000000000000000000000000000000000068
:101880000000000000000000000000000000000058
:1018900000000000000000000000000000006003E5
:1018A00080000000000000000000000100000000B7
:1018B00000008008000000000A00000E0054000034
:1018C0000000000C302000000000000000000000BC
:1018D0000000000000000000000000000000000008
:1018E00000000000000000000000000000000001F7
:1018F00000000000208021FE000000050000000024
:1019000000000803000000000003800000000080C9
:101910001C000000000000000000C30000000000E8
:1019200000000000000000000000000000000000B7
:1019300000000000000000000000000000000000A7
:10194000000000004000C0000000011247D50A005E
:1019500000040000000000001000400000000040F3
:10196000080000000005002000000000000000004A
:101970000C3020000000000000000000000000000B
:101980000000000000000000000000000000000057
:101990000000000000000000000000000000000047
:1019A00000401C29E9A50000000000000000000222
:1019B000000180F60000000102A800000000000005
:1019C00000000000000000C3000000000000000054
:1019D0000000000000000000000000000000000007
:1019E00000000000000000000000000000000000F7
:1019F0000000000000000002002007B250000400B8
:101A00000000000000002400000F4000000085419D
:101A100040000B0003C0000000000000000C30205C
:101A200000000000000000000000000000000000B6
:101A300000000000000000000000000000000000A6
:101A40000000000000000000001E00000000000078
:101A500000000000000500800001020002000DEA05
:101A6000001000000EB62154800026000000000087
:101A700000000000C30000000000000000000000A3
:101A80000000000000000000000000000000000056
:101A900000000000000000000000000000000091B5
:101AA0000000000000000000000000000000001620
:101AB0009000001C0030A0008000000B036D0000AF
:101AC000004000000000000000000C30200000007A
:101AD0000000000000000000000000000000000006
:101AE00000000000000000000000000000000000F6
:101AF0000000000300000000000000003E78DE50FF
:101B00000010000000000000C016E7000000030005
:101B100000000000000400000000000000000000C1
:101B200000C30000000000000000000000000000F2
:101B300000000000000000000000000000000000A5
:101B40000000000000000000000020400000000035
:101B5000000102C2400500920000000000000810D1
:101B6000A660000000204000B000000080000000DF
:101B70000000000000000000000000000000000065
:101B80000000000000000000000000000000000055
:101B90000000000000000500000000000000000040
:101BA00000000780FE80000000000000000001002F
:101BB0000010000000000000000000000000000015
:101BC0000000000000000000000000000000000015
:101BD0000000000000000000000000000000000005
:101BE00000000000000000000000000000080000ED
:101BF000000000000000000000080DAE9000000092
:101C0000000000000008000E000000000000280096
:101C100000000000000000000000000000000000C4
:101C200000000000000000000000000000000000B4
:101C300000000000000000000000000000000000A4
:101C40000000000700000000000000000000800D00
:101C50000036B40080000000000000080500A93232
:101C600080000061E38CA050000000001FABC000AA
:101C70000000000000000000000000000000000064
:101C80000000000000000000000000000000000054
:101C90000000080000000000000008000000000034
:101CA00000000000000098B0834000000000000029
:101CB0000000002D107800000000004030050000FA
:101CC0000000A0C3FC840000000000000000000031
:101CD0000000000000000000000000000000000004
:101CE00000000000000000000000000000000000F4
:101CF00005003E0C000004000000000000183B9DA1
:101D000010A0008000000000000200100000000091
:101D100000038F80402000579A0000000000000060
:101D200000000000000000000000000000000000B3
:101D300000000000000000000000000000000000A3
:101D400000000000000000380B38400000000000D8
:101D5000000000000041D100000000000000000071
:101D6000500E00000000000041C0580000000000BC
:101D70000000000000000000000000000000000063
:101D80000000000000000000000000000000000053
:101D90000000000000000000000000000000007AC9
:101DA000828880014000000000010E1B5080000E60
:101DB0008000000000000004083814010002002F19
:101DC000F0100008001F5B1400000140000000003C
:101DD0000000000000000000000000000000000003
:101DE00000000000000000000000000000000000F3
:101DF00000000000000300340000080000000000A4
:101E0000D9FB2C0800001000000000000010007436
:101E1000028000001401E90500010001D0C140006A
:101E200000080000000000000000000000000000AA
:101E300000000000000000000000000000000000A2
:101E4000000000000000000000000780000000000B
:101E5000000000000000081E9B8B80800000000036
:101E60000000000005E1AB6929024007C1E0F0086D
:101E70003409815B2840C0080C01EC002000000000
:101E80000000000000000000000000010000000051
:101E9000000004000000000000100000000000002E
:101EA0004000C000000000000000000040F0A90158
:101EB0007800010000000000000403003C16B80098
:101EC000100070100F008040F89580000001002085
:101ED000020A0200000000000000000000000000F4
:101EE00000000000000000000000000000000000F2
:101EF000000000000000000380000000000000005F
:101F0000000000018033828080000000000000009B
:101F1000000010000000020040348A00001007009A
:101F2000D369000000000000000000000000000075
:101F300000000000000000000000000000000000A1
:101F40000000000000000000000000000000080089
:101F500000000000000000000000000180040100FB
:101F600000000000000005830B00000000000021BD
:101F7000F0001000C00803BC90400000000000000A
:101F80000000000000000000000000000000000051
:101F90000000000000000000000000000000000041
:101FA00000000000070012828040000000000028AE
:101FB000278100000000000000000000000000F980
:101FC000B0940000004036C5A000104000000000A2
:101FD00000060000000000000000000000000000FB
:101FE00004000000000000000000000000000000ED
:101FF00000000000000000000000000000002800B9
:1020000000000000000000988000000000000000B8
:1020100000000000000ABF294000000203D00F00AA
:1020200000020000000000000000000000000000AE
:1020300000000000000000000000000000000000A0
:102040000000000000000000000000000000000090
:10205000000100000000000000000003000001007B
:102060000000000000000000003002F001F0010E4E
:102070000002E380000000100009000000000000E2
:10208000040000000000000000000000000000004C
:10209000000001000000000000040000000000003B
:1020A00010000000000000400000000000000000E0
:1020B000000020C000F0000000010000000000034C
:1020C000040100F0005410003C2000000000C0019A
:1020D000D0000000010002400000000000000000ED
:1020E00000000000000000000000000000000000F0
:1020F00000000000000000000000000000000000E0
:102100000000000000000000000045081000200052
:10211000000000000000000170000000000000004E
:102120000000000020001A0203D0000000000000A0
:10213000000000000000000000000000000000009F
:10214000000000000000000000000000000000008F
:10215000000000000000000000000000000000007F
:1021600000090080000800000000000000000000DE
:102170000000000000000000000000000000403DE2
:10218000010000000000000000000000000000004E
:10219000000000000000000000000000000000003F
:1021A000000000000000000000000000003A800075
:1021B0000000000000000010013B03E00200006886
:1021C000000000040018053A80000A00E03EE0A08C
:1021D0000483001A0000000000000000000000005E
:1021E00000000000000000000000000000000000EF
:1021F00000000000000000000000000000000000DF
:10220000003000076820000000000000000200E02D
:10221000703CA100000240000000000000082800FF
:10222000000A020170000000000000000000000031
:10223000000000000000000000000000000000009E
:10224000000000000000000000000000000000008E
:102250000000000000000000000800000000000076
:102260000000000000095783E0000000026FF468DE
:102270008000D1B7301C08000000000000002800DA
:10228000000000000000000000000000000000004E
:10229000000000000000000000000000000000003E
:1022A000000000000000000000000000000000B17D
:1022B00000000000000000000000000180803C00E1
:1022C0000000002F9A050000070E0401C000000066
:1022D00000000000010000000000000000000000FD
:1022E00000000000000000000000000000000000EE
:1022F00000000000000000000000000000000000DE
:10230000000000000050000000000000000000007D
:1023100000001E7703E000003E01FA0A300000B81A
:10232000EBEA840004121020E0A20020010000006B
:10233000000000000000000000000000000000009D
:10234000000000000000000000000000000000008D
:10235000000000000000000000000002000000007B
:1023600000000000000000000100C03C000001E08F
:102370003C000080000500FBE94000A02C01D005D6
:102380000000000800000000000000000000000045
:10239000000000000000000000000000000000003D
:1023A000000000000000000000000000000000002D
:1023B0000000000077014000000000000000018ADA
:1023C000926BC0000000021A8022000219B1610065
:1023D000080000002FCF5020000500000000000082
:1023E00000000000000000000000000000000000ED
:1023F00000000000000000000000000000000000DD
:102400000000000000000000000000C014010000F7
:10241000000000000000A9376C000000003C040030
:102420000000070850000000000000D0F70800007E
:10243000000000000000000000000000000000009C
:10244000000000000000000000000000000000008C
:10245000000000000000000000000000000000007C
:102460001C000000000000000000000F081E828019
:1024700000002006F8A00000840003696800020341
:10248000E38000000003A8187EC150000000000097
:10249000000000000000000000000000000000003C
:1024A000000000000000000000000000000000002C
:1024B00000000000000071000000000000000000AB
:1024C0000000B1E0C028000002C2270A500000202E
:1024D00009DE8680004A7E000000000005B003246B
:1024E000D501000000000000000000000000000016
:1024F00000000000000000000000000000000000DC
:1025000000000000000000000000000000010000CA
:10251000000000000000000001183F03C000002080
:1025200007DEC342000070B5BC00000000025D8001
:10253000500020100000000000000000000000001B
:10254000000000000000000000000000000000008B
:10255000000000000000000000000000000000007B
:1025600000000090E00000000000000000000008F3
:102570000DB81C000001C21C0D340400279DF38817
:10258000001000007FE000000102000000000000D9
:10259000000000000000000000000000000000003B
:1025A000000000000000000000000000000000002B
:1025B000000000000000000000000000000000001B
:1025C0000000000003001E7F14000C0E1C20000001
:1025D00000000039D7B0600800E0E601E0F0030039
:1025E0000180BED0D000000000000000000000000C
:1025F00000000000000000000000000000000000DB
:1026000000000000000000000000000000000000CA
:10261000000000000000000000000000510BC0009E
:10262000004002440000000000409A38070000000B
:102630002640000F2021000009348D010000000019
:10264000000000000000000000000000000000008A
:10265000000000000000000000000000000000205A
:10266000000000000000050038002000000000000D
:102670000001071E924BC000000031C9F1408000EC
:10268000180D64910108040035C0000000000A72B2
:10269000282000000000E000800000000000000092
:1026A000000000000000000000000000000000002A
:1026B000000000000000000000000000007000802A
:1026C0000008000000000000000183682C0000A04A
:1026D000000DFFA40000000C1349D8000000276D76
:1026E000800000000100C28088000000020000207D
:1026F00000000000000000000000000000000000DA
:1027000000000000000000000000002000020000A7
:1027100000000007801683E0000000000000038F27
:102720001A3E3880824020000000000800D1FBE102
:1027300009800000E38EA180208000007A3C200206
:10274000008001E8F08000000000000000000000B0
:102750000000000000000000000000000000000079
:10276000000000004000000000000000343C0100B8
:1027700000000000000019008388000A00400000EB
:10278000000000078D1E18D0000802037008000129
:1027900020000083C000001340000F000000000074
:1027A0000000000000000000000000000000000029
:1027B0000000000000000000C00200000000000057
:1027C00000015303E00000000000000000005F284B
:1027D000000001E000CF004080008015601500027D
:1027E00004E71DAC1028000000723C20000000012E
:1027F00048F0800000000000000000000000000021
:1028000000000000000000000000000000000400C4
:102810003C0000000000000080803C000000000040
:102820000000000009C3D400001C402CFCF4000090
:1028300081087C3D540040022E60C0000000000072
:1028400003C040000340000F000000000000000033
:102850000000000000000000000000000000000078
:1028600000000000000000000000000000070072EF
:102870005788000000000000002718FE97808000A5
:102880000000D80E2000008019750D80000067AF91
:10289000A80200102F0A3A3C240000200068F080B3
:1028A0000000000000000000000000000000000028
:1028B0000000000000000000000000000000000018
:1028C00000000000080F20B8000000000000000415
:1028D000089301500000000002A0E00000010F1E5C
:1028E000C8D0000A34424D0000020C110083C00021
:1028F000002040000F000000000000000000000069
:1029000000000000000000000000000000000000C7
:1029100000000000005580550000078800000000FE
:1029200000000000000000089FAF0080001407CFE7
:10293000516100007001EDC1810000029D81C02045
:10294000000000DA411000000003686440800000CD
:102950000000000000000000000000000000000077
:1029600000000000000000000000003810054000DA
:102970000001000000000000000000000001DD0276
:10298000600000036205F8A500000080F3EC500031
:102990000024794024004000000D2AD500000000EA
:1029A0002CF25400000000000000000000000000B5
:1029B0000000000000000000000000000000000017
:1029C00000000000000000000E00000000A0000059
:1029D000000021099FF229400000000000000000D3
:1029E0000080887A58000400474DE0A00003C00131
:1029F0000000000000006000000000000000000077
:102A000000000000000000000000000000000000C6
:102A100000000000000000000000000000000100B5
:102A2000000000040000000001007189C2A800003D
:102A3000000000000000000F08B01A40002C262003
:102A4000000A01000000F000000000000640000045
:102A50000000000000000000000000000000000076
:102A60000000000000000000000000000040000026
:102A700000000000870017A804000000000000000C
:102A8000001C9B1540010000000000000004188F8E
:102A9000B215080000004FE0002000000100000017
:102AA0000000002000000000000000000000000006
:102AB0000000000000000000000000000000000016
:102AC000000000000000000000000008E00280009C
:102AD00000040000000000000765D000000142C0B3
:102AE00000000002201038397040001C32700100D4
:102AF0000000F0F0000000000000000000000000F6
:102B000000000000000000000000000000000000C5
:102B1000000000000000000000C0000000000000F5
:102B2000000800000000000E00000000101F00B2AE
:102B300029400C000070000000300410F770008085
:102B40000401C04000000300400A0000000C000621
:102B50000000000000000000000000000000000075
:102B6000000000000000000000000000000000085D
:102B70000000000000000030B00000000000000075
:102B800000000282B0DFC2A8008000040000000242
:102B900000209838028040A48234000000201000F9
:102BA0000000000080002000000000000000000085
:102BB0000000000000000000000000000000000015
:102BC0000000100000000000000000000000850070
:102BD00010002000000000000000000F57FC200142
:102BE000000539FE0A00008081C97D0C40021000FA
:102BF00075BF000000081833B0D0000020294C43F6
:102C00004000000000000000000000000000000084
:102C100000000000000000000F00000000000000A5
:102C2000000000010000000000080000000000009B
:102C3000000190303C000002464200A00000571006
:102C40001F30C00040803F7FE000000010E9A38BF0
:102C50000400004037823400000000000000000043
:102C6000000000000000000000000000080000005C
:102C700000000000000000000000000000500020E4
:102C8000000000000000800800123C2000002061CD
:102C9000EE000209000001A800022003C7B68C164E
:102CA0002480001E000000020020680000000000D8
:102CB0000000000000000000000000000000000014
:102CC0000000000000000000000000000000000004
:102CD0000000000034000000000000000000D000F0
:102CE00083C000020044250040100B0B00940280BA
:102CF00000003C03D0C0418018110000000000001B
:102D00004000000000000000000000000000000083
:102D1000000000000000000000180000000000009B
:102D200000000000000000005788023C0400000082
:102D30000000000008005A3C20000D0069D808027D
:102D400002800180000000000403D7E0A000000022
:102D5000003A280000014021CE05000000000000DC
:102D60000000000000000000000000000000000162
:102D70000000000000000000000000000000200033
:102D80000003C02004000000000030900003C000D9
:102D9000040140010080001000000000000040001D
:102DA00034000A0000100000C28001000806820002
:102DB00051000000000000000000000000000000C2
:102DC0000000000000000000000000000000000003
:102DD00000000000000798000000008000000000D4
:102DE0001288001A0CD000001E05CA5000403000A6
:102DF000010695A300226774C02021100000B728A7
:102E000000004000600E3F220000000000000000B3
:102E1000000000000000000000000000000380002F
:102E200000000000000000000000000000F00000B2
:102E30000004C000000000809009344925000163AF
:102E4000C3050200000000F3A05C00000462E00380
:102E500000208050038000010A00000103F0000000
:102E60000000000000000000000000000000000062
:102E70000000000000000000000000000000000052
:102E80000000238FB740024000000000000000183F
:102E9000000000000000220B0F00040100003BC1F5
:102EA0000000020366C106300050090630048000AD
:102EB00006784D43400000000000000000000000C4
:102EC0000000000000000000000000000000000002
:102ED000000000000000000000018D2880010000BB
:102EE000000000000000000000000000040C80F062
:102EF00080402000043C1000000C79D000680002E3
:102F000001E043000000402437823400000000004C
:102F100000000000000000000000000000000000B1
:102F2000000000000000000000000000000000039E
:102F30008000000000000000000000000000000011
:102F400000002003CA000081000013A95480000182
:102F5000C70FB2010002AB9A03A8004000000000B6
:102F60000000000000000000000000000000000061
:102F70000000000000000000010000000000000050
:102F80000000000000000000000000000000000041
:102F9000000050000000000003C0170A0000080DE8
:102FA000080C1548000E007B7900000005B80901E7
:102FB00040000000000000000000000000000000D1
:102FC0000000000000000000000000000000000001
:102FD0000F000100000000000000001000000000D1
:102FE0000000A00000000000000000000000002021
:102FF000696870000000000002950200E00027D11F
:10300000A0000001005A28004000207800000000C5
:1030100000000000000000000000000000000000B0
:1030200000000000000300302950100000000000E4
:103030000000001000000000000000000000000080
:1030400000000000000340278F0018290009D01657
:103050009020000001CB000000001C004280000016
:1030600061C7000000000000000000000000000038
:103070000000000000000000000030000000000020
:10308000000000000000000000000032E9400000E5
:103090000000000301800000000000004425FA1A2F
:1030A0000110008010000000400142ADF7A00100B7
:1030B00020008728000C0C00797F244000000000CD
:1030C0000000000000000000000000000000000000
:1030D00002000000000000000000000000000000EE
:1030E0000007ED4800000000000020005000000034
:1030F000000003462E81800200010C000000040045
:103100003C7D6E7408100400030140808000040FB1
:1031100092740000000000000000000000000000A9
:103120000000000000000000080000000000000097
:10313000001FE5040000080000000000000000007F
:103140000002000A580020000100007A500004002C
:1031500081F3602880000206A7C8020000000D76F7
:103160004810000006614C0F8000000000000000C5
:10317000000000000000000000000000000000004F
:1031800000000000000000002050600002F0E0009D
:1031900000000000000000003000000000080040B7
:1031A000001D0F0000400B1C00028040001C00EAC4
:1031B0000000003000EFA54920020142C2C0F0002B
:1031C00000000000000000000000000000000000FF
:1031D0000000000000000000000000200000360099
:1031E0000400000000120680000000000000100033
:1031F0001C504020000006037C100200007005A94E
:1032000000082840C724E05000804F1C53769000EF
:10321000401404605A80000000000000000000001C
:10322000000000000000000000000000000000009E
:103230000000000003C0A541000000057C30000034
:1032400000000000008001002400000000202F008A
:103250000000030000FC000000402402D000000039
:103260000859F9BB47200A0163168A500000000084
:10327000000000000000000000000000000000004E
:103280000000000000000000C000005EA506000075
:10329000080053820000000000000028070153834B
:1032A000E001000602EC42220034D0A57E84040036
:1032B00000626FC3E00100001E0000000000140562
:1032C000C05A800000000000000000000000000064
:1032D00000000000000000000000000000000400EA
:1032E000003830504000007009600000000000000D
:1032F0000001001880803C00102822BC083000002B
:103300000D9097A800000000306BBD001000000079
:10331000000000000363568A500000000000000017
:10332000000000000000000000000000000000009D
:1033300000000000000001E03C000400000000006C
:1033400000000000000000000008005016A000006F
:10335000B639CB1800001801C728E0080000002F7C
:10336000E4202000000000000000000000680F8042
:10337000000000000000000000000000000000004D
:10338000000000000000000000000000000003C07A
:10339000A5600280000000000000000000000000A6
:1033A00090093694040011420EC0400000000058FD
:1033B0000F0000000000700100000070000000001D
:1033C0000008000190F00000000000000000000074
:1033D00000000000000000000000000000000000ED
:1033E00000000000000000000000000000000000DD
:1033F0000000000000000019023C0000C05603EA73
:1034000080020000F0177400000000001487F438F8
:1034100000081E5B028800003E01F90F80000000DA
:10342000000000000000000000000000000000009C
:103430000000000000000000000000240000000068
:103440002000000000000000000000000000D00389
:10345000C0A40400003F0A000000070E138400000F
:103460000A4001F0BD40800871004028A0001460AF
:1034700000C0F0000000000000000000000000009C
:10348000000000000000000000000000000000003C
:10349000000000000000000000000000000000002C
:1034A0000000000781B716880000143400000000F7
:1034B0000A39833684000002420000000020001F09
:1034C0000703008000200008F00100000000000059
:1034D00000000000000000000000000000000000EC
:1034E00000000000000000000000000000000000DC
:1034F0000000000000000000000030F7C014800051
:103500000006000000000000909B400000000468DE
:1035100000000000000180403000000340000F0068
:103520000800000000000000000000000000000093
:103530000000000000000000000000000000C000CB
:10354000000000100000000000000000000000006B
:103550000000BBA80000021C236F0B00028081C08A
:103560000000000000478000000000001B3E0284B5
:103570000000000400000000000000000000000047
:10358000000000000000000000000000000000003B
:10359000000000000000000000008000800000002B
:1035A0000000000000000010EB43D420008826DD5E
:1035B000A0F00000091A0000000000000000000058
:1035C000000001C0C028200004020000000000002C
:1035D00000000000000000000000000000000000EB
:1035E000000000000000000000C0020040000000D9
:1035F00000000000000000000000000000000007C4
:103600000148000C1434000000000430E5FC2000E8
:10361000C00046800000010000000630008040A18C
:10362000000000000000000000000000000000009A
:103630000000000000000000000000000000000882
:10364000002C380000000000000000000000000016
:1036500000000000F005002800001022000000001B
:1036600012808B3E00000C00034000000020001080
:103670000003008102104000000000000000000074
:10368000000000000000000000000003C850C0005F
:103690000000070002000000000C166C0000038010
:1036A00000000000000000000000000EDB30C00041
:1036B000000028C00080000079ED2028000000E014
:1036C00046A00000639B08D324D0200020006DA4F6
:1036D00040000000000000000000000000000000AA
:1036E00000000400542000000000000080000000E2
:1036F0002A66C0000000A0000000000000000000DA
:10370000000009FB08000008C4020000200080003F
:10371000B4000010003C28FF400004021005E1093D
:1037200060000042C68DA400000000000000000000
:10373000000000000002000003C850C000000007A5
:1037400023C20020004016896C00800000000000A9
:10375000000A000000008000003AB9D8800014710F
:10376000DA0F80080080E5380828000003C4808054
:103770002080000A0683C012000032CFF140000012
:1037800000000000000000000000000000024014E3
:103790000054100000000003C0000002000C96C09E
:1037A000000000000000000000000000000550E7DD
:1037B000C3EDA00000270000F00000090004008213
:1037C00020001C3C500C0000001000003C000003D6
:1037D0004026AB0C000000000000000000000000CC
:1037E0000000000000674850C000000003A25A001B
:1037F0000000000C996C00000D0012BF900000004A
:1038000000000000081E32E80000003605580F8056
:103810000000F9E7BA00080000027DB5A0800000B2
:103820000000000000003402D9E340400000000026
:10383000000000000000000000000002060054002C
:10384000000000036580400000000B96400000D09F
:103850000526DD00000000000000007107A1000047
:103860000002420300F000000700301400000000D6
:1038700020492500000000B000000000016007E8BA
:103880003400000000000000000000000000000004
:103890000006674850C000000007265A000000C715
:1038A00096996C000000000000000000000000007D
:1038B00000098100000000000E60480020040000A4
:1038C0000378008000EA002DE4A0031005800000CA
:1038D0000000000663DAA0104000000000000000B5
:1038E000000000000000000242160054000000002A
:1038F0000B2582000000002E964000000000000012
:10390000000000000000000010D0000000000000D7
:103910003C00A000000000F8014000013C01FFA5B0
:1039200000008800000000000003403F0F0000007E
:103930000000000000000000000000000000000384
:10394000E850C000000013A65A000001C69E896C12
:103950000040000000000000000000000000400ADD
:10396000FE9400000004746805000100800000005F
:10397000000012600EC4202000A00A172940000099
:1039800034296A1A2A00000000000000000000002C
:103990000000000000000400540000000A0325801D
:1039A000000002640F964004080000000000008040
:1039B00000000000000009C0000000002797000080
:1039C000000801080000000000A42F40400000048F
:1039D000000043E8050002C28001A00400000000CE
:1039E000000000000000000000000000036850C05C
:1039F0000000F017A65A000000039C996C0000001C
:103A0000000000000006000000000000019E8C186D
:103A100080000000000000000000073000001400DB
:103A20006001C3022412200E763D4000000062FBBC
:103A3000F140000000000000000000000000000055
:103A40000000001400540000050A03258040000017
:103A5000402896C0000000000000000000000000A8
:103A60000000908781E921000000000000000000B4
:103A7000087002800000260000302000850100034D
:103A8000D48100214024AB040000000000000000AD
:103A9000000000000000000026036850C00000D9AC
:103AA000A3A65A000000078E896C000000000000E9
:103AB00000000000000000000180DA7954000006D8
:103AC000066A8000000010F16000000A0207C000D2
:103AD00000000027001A01480020062DDEB2410038
:103AE0000000000000000000000000000000004096
:103AF00006005400000500036580000000002D96BC
:103B000040000000000000000000000000000090E5
:103B100005778921000003BCDC000010219DF7809F
:103B2000800000543C00000000050800C0140400A0
:103B300008078FAA05000000000000000000000038
:103B40000000000C002003685040000059A7A65A4E
:103B500000C00000208554030000000000000000A9
:103B600000000003000800000000000000207A5A56
:103B70000030005005620108004A07800000030081
:103B800050000000000C000404C99349000000002C
:103B900000000000000000000000800040160054FB
:103BA000040000000B258008000402C0AA40200089
:103BB0000000000000001000000010005080000015
:103BC000000000040F05A002000B80580010200127
:103BD0002400000000200000000000008000023DE2
:103BE000D4250000001101010100000000000000C8
:103BF0000000000010000000000000400000000075
:103C0000000100000000000004000000000000109F
:103C10000000000000004000000000100000000054
:103C2000000040000000000001000000000000044F
:103C30000000000000001000000000000040000034
:103C40000000000000000000000002000000000072
:103C500000080000000000002000000000000080BC
:103C6000000000000002000000000000080000004A
:103C7000000200000000000008000000000000201A
:103C800000000000000080000000000002000000B2
:103C9000000000080000000000000000000000001C
:103CA0000000000000000000000000000000000014
:103CB0000000000000000000000000000000000004
:103CC00000000000000000000000000000000000F4
:103CD00000000000000000000000000000000000E4
:103CE0000000000000004000000000000000000094
:103CF00000000000000000000000000000000000C4
:103D000000000000000000000000000000000000B3
:103D100000000000000000000000000000000000A3
:103D20000000000000000000000000000000000093
:103D30000000000000000000000000000000000083
:103D40000000000000000000000000000000000073
:103D50000000000000000000000000000000000063
:103D60000000000000000000000000000000000053
:103D70000000000000000000000000000000000043
:103D80000000000000000000000000000000000033
:103D90000000000000000000000000000000000023
:103DA0000000000000000000000000000000000013
:103DB0000000000000000000000000000000000003
:103DC00000000000000000000000000000000000F3
:103DD00000000000000000000000000000000000E3
:103DE00000000000000000000000000000000000D3
:103DF00000000000000000000000000000000000C3
:103E000000000000000000000000000000000000B2
:103E100000000000000000000000000000000000A2
:103E20000000000000000000000000000000000092
:103E30000000000000000000000000000000000082
:103E40000000110000000000000000000000000061
:103E50000000000000000000000000000000000062
:103E60000000000000000000000000000000000052
:103E70000000000000000000000000000000000042
:103E80000000000000000000000000000000000032
:103E90000000000000000000000000000000000022
:103EA0000000000000000000000000000000000012
:103EB0000000000000000000000000000000000002
:103EC00000000000000000000000000000000000F2
:103ED00000000000000000000000000000000000E2
:103EE00000000000000000000000000000000002D0
:103EF00000000000000000000000000000000000C2
:103F000000000000000000000000000000000000B1
:103F100000000000000000000000000000000000A1
:103F20000000000000000000000000000000000091
:103F30000000000000000000000000000000000081
:103F40000000000000000000000000000000000071
:103F50000000000000000000000000000000000061
:103F60000000000000000000000000000000000051
:103F70000000000000000040000000000000000001
:103F80000000000000000000000000000000000031
:103F90000000000000000000000000000000000021
:103FA0000000000000000000000000000000000011
:103FB0000000000000000000000000000000000001
:103FC000000000000000000000000050000400009D
:103FD00000000000000000000000000000000000E1
:103FE00000000000000000000000000000000000D1
:103FF00000000000000000000000000000000000C1
:1040000000000000000000000000000000000000B0
:1040100000000000000000000000000000000000A0
:104020000000000000000000000000000000000090
:104030000000000000000000000000000000000080
:104040000000000000000000000000000000000070
:104050000000000000000000000000000000000060
:104060000000000000000000000000000000000050
:104070000000000000000000000000000000000040
:104080000000000000000000000000000000000030
:104090000000000000000000000000000000000020
:1040A0000000000000000000000000000000000010
:1040B0000000000000000000000000000000000000
:1040C00000000000000000000000000000000000F0
:1040D00000000000000000000000000000000000E0
:1040E00000000000000000000000000000000000D0
:1040F00000000000000000000000000000000000C0
:1041000000000000000000000000000000000000AF
:10411000000000000000000000000000000000009F
:10412000000000000000000000000000000000008F
:10413000000000000000000000000000000000007F
:10414000000000000000000000000000000000006F
:1041500000000000000C3000000000000000000023
:10416000000000000000000000000000000000004F
:10417000000000000000000000000000000000003F
:104180000000000000040004006005400000000082
:10419000000000000000000000000000000000001F
:1041A000000000000000000000000000C30200004A
:1041B00000000000000000000000000000000000FF
:1041C00000000000000000000000000000000000EF
:1041D0000000000000000000000000004002003667
:1041E000850408000000000000000000000000003E
:1041F00000000000000000000000000000000000BF
:1042000000000C3000000000000000000000000072
:10421000000000000000000000000000000000009E
:10422000000000000000000000000000000080000E
:10423000000000000043E005400000000000000016
:10424000000000000000000000000000000000006E
:10425000000000000000000000C302000000000099
:10426000000000000000000000000000000000004E
:10427000000000000000000000000000000000003E
:1042800000000000100000000000006696850C0889
:10429000000000000000000000000000000000001E
:1042A0000000000000000000000000000000000C02
:1042B00030000000000000000000000000000000CE
:1042C00000000000000000000000000000000000EE
:1042D0000000000000000000000000000017C00007
:1042E000002C004005480000000000000000000015
:1042F00000000000000000000000000000000000BE
:10430000000000000000C3020000000000000000E8
:10431000000000000000000000000000000000009D
:10432000000000000000000000000000000000008D
:10433000000007617C0000020036850C00000000D0
:10434000000000000000000000000000000000006D
:104350000000000000000000000000000C30000021
:10436000000000000000000000000000000000004D
:10437000000000000000000000000000000000003D
:10438000000000000000000000000000000000032A
:10439000C005480000000000000000000000000010
:1043A000000000000000000000000000000000000D
:1043B000000000C302000000000000000000000038
:1043C00000000000000000000000000000000000ED
:1043D00000000000000000000000000000000000DD
:1043E0000000000000001E850C000000000000001E
:1043F00000000000000000000000000000000000BD
:104400000000000000000000000C30000000000070
:10441000000000000000000000000000000000009C
:10442000000000000000000000000000000000008C
:1044300000000000000000000008000020600540AF
:10444000000000000000000000000000000000006C
:10445000000000000000000000000000000000005C
:10446000C302000000000000000000000000000087
:10447000000000000000000000000000000000003C
:10448000000000000000000000000000000000002C
:1044900040006674850C040000000000000000006D
:1044A000000000000000000000000000000000000C
:1044B0000000000000000C300000000000000000C0
:1044C00000000000000000000000000000000000EC
:1044D00000000000000000000000000000000000DC
:1044E00000000000000008000423E0054000000078
:1044F000000000000000000000000000500000006C
:1045000000000000000000000000000000C30200E6
:10451000000000000000000000000000000000009B
:10452000000000000000000000000000000000008B
:104530000000000000000000000000000040020633
:1045400054850C0400000000000000000000000082
:104550000000020000000000000000000000000059
:104560000000000C3000000000000000000000000F
:10457000000000000000000000000000000000003B
:1045800000000000000000000000000000000B0020
:10459000000000080004004005400000000000008A
:1045A000000000000000000000000000000000000B
:1045B00000000000000000000000C3020000000036
:1045C00000000000000000000000000000000000EB
:1045D00000000000000000000000000000000000DB
:1045E000000000000080000000006000E03C850C3E
:1045F00004000000000000000000000000000000B7
:1046000000000000000000000000000000000000AA
:104610000C3000000000000000000000000000005E
:10462000000000000000000000000000000000008A
:10463000000000000000000000000000000000007A
:1046400000000000CF564400000000000000000001
:10465000000000000000000000000000000000005A
:1046600000000000000000C3020000000000000085
:10467000000000000000000000000000000000003A
:10468000000000000000000000000000000000002A
:104690000000000000000080000034895C08000079
:1046A000000000000000000000000000000000000A
:1046B000000000000000000000000000000C3000BE
:1046C00000000000000000000000000000000000EA
:1046D00000000000000000000000000000000000DA
:1046E00000000000000001000000302970040004F8
:1046F000006A5648000000000000000000000000B2
:1047000000000000000000000000000000000000A9
:104710000000000AC30200000000000000000000CA
:104720000000000000000000000000000000000089
:104730000000000000000000000000000010000069
:10474000000169204002061E895C00000000000094
:104750000000000000000000000000000000000059
:10476000000000000000000000000C30000000000D
:104770000000000000000000000000000000000039
:104780000000000000000000000000000000000029
:1047900000000000000000000000000004006005B0
:1047A00040000000000000000000000000000000C9
:1047B00000000000000000000000000000000000F9
:1047C00000C3020000000000000000000000000024
:1047D00000000000000000000000000000000000D9
:1047E00000000000000000000000000000000000C9
:1047F0000000026016850C000000000000000000B0
:1048000000000000000000000000000000000000A8
:10481000000000000000000C30000000000000005C
:104820000000000000000000000000000000000088
:104830000000000000000000000000000000000078
:1048400000000000000000000000014005400000E2
:104850000000000000000000000000000000000058
:104860000000000000000000000000000000C30283
:104870000000000000000000000000000000000038
:104880000000000000000000000000000000000028
:104890000000000000000000000000000000000018
:1048A0000016850C00000000000000000000000061
:1048B00000000000000000000000000000000000F8
:1048C000000000000C3000000000000000000000AC
:1048D00000000000000000000000000000000000D8
:1048E00000000000000000000000000000000000C8
:1048F0000000000000000000400540000000000033
:1049000000000000000000000000000000000000A7
:104910000000000000000000000000C302000000D2
:104920000000000000000000000000000000000087
:104930000000000000000000000000000000000077
:1049400000000000000038000000000000001E858C
:104950000C0000000000000000000000000000004B
:104960000000000000000000000000000000000047
:10497000000C3000000000000000000000000000FB
:104980000000000000000000000000000000000027
:104990000000000000000000000002000000000015
:1049A00000080A002160054000000000000000002F
:1049B00000000000000000000000000000000000F7
:1049C0000000000000000000C30200000000000022
:1049D00000000000000000000000000000000000D7
:1049E00000000000000000000000000000000000C7
:1049F000001000000000000040006054850C000022
:104A00000580000000000000000000000000000021
:104A100000000000000000000000000000000C305A
:104A20000000000000000000000000000000000086
:104A30000000000000000000000000000000000076
:104A4000000000000000000200000000000008005C
:104A50001C2168564800005001A80000000000001A
:104A60000000000000000000000000000000000046
:104A700000000C0000C30200000000000000000065
:104A80000000000000000000000000000000000026
:104A90000000000000000000000000000000100006
:104AA00000000000004000E654895C00000800920D
:104AB000C200000000000000000000000000000034
:104AC00000000000000000000000000C30000000AA
:104AD00000000000000000000000000000000000D6
:104AE00000000000000000000000000000000000C6
:104AF0000000000002000100000000080404004A59
:104B000056480000500000000000000000000000B7
:104B10000000000000000000000000000000000095
:104B20000000C302000000000000000000000000C0
:104B30000000000000000000000000000000000075
:104B4000000000000000000000000018000000004D
:104B500000006000001C895C0000080000000000EC
:104B60000000000000000000000000000000000045
:104B700000000000000000000C30000000000000F9
:104B80000000000000000000000000000000000025
:104B90000000000000000000000000000000000015
:104BA000000000000000000000001C004005440060
:104BB00000000000000000000000000000000000F5
:104BC0000000000000000000000000000C0040C3D6
:104BD00002000000000000000000000000000000D3
:104BE00000000000000000000000000000000000C5
:104BF0000000000000000000200000000000008015
:104C000000E01C850C0000001A00000000000000FD
:104C10000000000000000000000000000000000094
:104C200000000000000C3000000000000000000048
:104C30000000000000000000000000000000000074
:104C40000000000000000000000000000000000064
:104C5000000000000004000440EA5640000000B0DC
:104C600000000080000000000002000000000000C2
:104C7000080000000000000000000000C302000067
:104C80000000000000000000000000000000000024
:104C90000000000000000000000000000000000014
:104CA000000000000000000000000000400266B6A6
:104CB000995C0000070000000004000000000000F4
:104CC0001000000000000040000000000000000094
:104CD00000000C3000000000000000000000000098
:104CE00000000000000000000000000000000000C4
:104CF00000000000000000000000000000000000B4
:104D0000000000000403E005400000000000000077
:104D10000000000000000000000000000000000093
:104D2000200000000000000000C30200000000009E
:104D30000000000000000000000000000000000073
:104D40000000000000000000000000000000000063
:104D500000000000000000000000026036850C002A
:104D600003000E0000000000000000000000000131
:104D7000C000000000000000000000000000000C67
:104D800030000000000000000000000000000000F3
:104D90000000000000000000000000000000000013
:104DA0000000000000000000000000000000000003
:104DB000000000CA56400000000000000000000093
:104DC00000000000000000000000000000000000E3
:104DD000000000000000C30200000000000000000E
:104DE00000000000000000000000000000000000C3
:104DF00000000000000000000000000000000000B3
:104E00000000000000000000403E995C0000000E21
:104E10000000000000000000000000000000000092
:104E20000000000000000000000000000C30000046
:104E30000000000000000000000000000000000072
:104E40000000000000000000000000000000000062
:104E5000000000000000000000000000000000034F
:104E6000C00540000000800000000000024000007B
:104E7000000000000000000000003810A04000000A
:104E8000000000C30200000000000000000000005D
:104E90000000000000000000000000000000000012
:104EA0000000000000000000000000000000000002
:104EB0000000000000003E850C0000000100000022
:104EC00000000000000000000000000000000000E2
:104ED0000000E50400000000000C300000000000AD
:104EE00000000000000000000000000000000000C2
:104EF00000000000000000000000000000000000B2
:104F000000000000000000000008001421600540BF
:104F1000000000A96C00000000000000000000007C
:104F20000000000000000000000000000000000081
:104F3000C3020000000000000000000000000000AC
:104F40000000000000000000000000000000000061
:104F50000000000000000000000000000000000051
:104F600040000674850C0000059B1A4200000000FA
:104F70000000000000000000000000000000000031
:104F80000000000000000C300000000000000000E5
:104F90000000000000000000000000000000000011
:104FA0000000000000000000000000000000000001
:104FB00000000000000008000023E0054000005051
:104FC000B52C08004000034000000300000F042837
:104FD00010440000000000000000000000C30200B8
:104FE00000000000000000000000000000000000C1
:104FF00000000000000000000000000000000000B1
:10500000000000000000000000000000004000065A
:1050100074850C0000081892C0000C000004000009
:105020000030000010294100C00000000000000016
:105030000000000C30000000000000000000000034
:105040000000000000000000000000000000000060
:105050000000000000000000000000000000000050
:10506000000000080004014005400000500DC00091
:105070000000000000000000000000000000000030
:1050800000000000000000000000C302000000005B
:105090000000000000000000000000000000000010
:1050A0000000000000000000000000000000000000
:1050B000000000000000000000006000003C850CC3
:1050C00000000800532002820000000000000800D9
:1050D00000000000002000000000000000000000B0
:1050E0000C30000000000000000000000000000084
:1050F00000000000000000000000000000000000B0
:10510000000000000000000000000000000000009F
:1051100000000003C00542000000AFF800000000DE
:10512000000100F4980000000000000000000000F2
:1051300000000000000000C30200000000000000AA
:10514000000000000000000000000000000000005F
:10515000000000000000000000000000000000004F
:10516000000000000000008000003C850C000005ED
:105170009B3FC200000000000A0F4000000000003A
:10518000000000000000000000000000000C3000E3
:10519000000000000000000000000000000000000F
:1051A00000000000000000000000000000000000FF
:1051B0000000000000000000000000000004001CCF
:1051C00040000000200000000000008000400000BF
:1051D000000200000F5BD50808003C416C4600004F
:1051E00000000000C30200000000000000000000FA
:1051F00000000000000000000000000000000000AF
:10520000000000000000000000000000000000009E
:10521000000000004001C300000001000000000089
:105220000004000000000000100000D76578004076
:10523000E1E71FE5E000000000000C300000000086
:10524000000000000000000000000000000000005E
:10525000000000000000000000000000000000004E
:10526000000000000000000000000000007A5E0462
:1052700060000000000169020003C6000000000099
:1052800000105419000000140060380100000000F4
:1052900000C3020000000000000000000000000049
:1052A00000000000000000000000000000000000FE
:1052B00000000000000000000000004000000000AE
:1052C000000100E316A1C40000000000001020004F
:1052D00000240000000000788B2AF008000002245F
:1052E000EB9020000000000C3000000000000000E7
:1052F00000000000000000000000000000000000AE
:10530000000000000000000000000000000000009D
:105310000000000000000000000235FF0000004017
:105320000000016900010043400000000407005B29
:10533000D500001A00016946000000000000C30209
:10534000000000000000000000000000000000005D
:10535000000000000000000000000000000000004D
:1053600000000000000000004000000000000100FC
:10537000C3EFE8000000000000001020002004003F
:10538000000000000007ED780000000005E5E000E7
:10539000000000000C3000000000000000000000D1
:1053A00000000000000000000000000000000000FD
:1053B00000000000000000000000000000000000ED
:1053C0000000000000000001C0A500004000000136
:1053D00069000102C006A3F000040B80341900002C
:1053E0001002004038000000000000C3020000006E
:1053F00000000000000000000000000000000000AD
:10540000000000000000000000000000000000009C
:10541000000000000078000000000001014006CDFF
:10542000A038000000000010200E00037A1A0000CF
:1054300020700B2AF0080001C024EB902800000027
:10544000000C300000000000000000000000000020
:10545000000000000000000000000000000000004C
:10546000000000000000000000000000000000003C
:105470000008001C02EC00000000000001690000B0
:1054800002C72683F01000008053D50000000401FD
:105490004A36000000000000C302000000000000C7
:1054A00000000000000000000000000000000000FC
:1054B00000000000000000000000000000000000EC
:1054C00000000000000000004002003DF0800000ED
:1054D000000000001800002E777B1A000000300743
:1054E0007578000000071EB3A000000000000C301B
:1054F00000000000000000000000000000000000AC
:10550000000000000000000000000000000000009B
:10551000000000000000000000000000000000008B
:10552000002000000011000000016900C08002A4FA
:10553000C1D00108010B3419000C000600403801ED
:105540000000000000C30200000000000000000096
:10555000000000000000000000000000000000004B
:10556000000000000000000000000000000000003B
:105570000000000000000006000000010000000024
:1055800000101C000423EE5E00110090032AF008B6
:10559000C002403EEB9020000000000C30000000F4
:1055A00000000000000000000000000000000000FB
:1055B00000000000000000000000000000000000EB
:1055C000000000000003000000000008000401507B
:1055D000A00000000000016900000166BD0FF40496
:1055E00000070053D500008034016E460000000023
:1055F0000000C302000000000000000000000000E6
:10560000000000000000000000000000000000009A
:10561000000000000000000000000000000000008A
:10562000000060006020A50000800000000014025F
:10563000001C68FC7F4A08008005357800240000C3
:1056400017F5E000000000000C3000000000000032
:10565000000000000000000000000000000000004A
:10566000000000000000000000000000000000003A
:1056700000000000000000000000003A5E9D0000F5
:105680000000800169800000067793F00000000FA1
:1056900000169000000024005A400000000000C3E3
:1056A00002000000000000000000000000000000F8
:1056B00000000000000000000000000000000000EA
:1056C000000000000000000000000000000000805A
:1056D000000056A9900000000000001000000069C2
:1056E000481A000010001000010000C04200000431
:1056F00000000000000000000000000000000000AA
:105700000000000000004000000000000100000058
:10571000000000040000000000000000000002047F
:105720000000000000041000000000002040000005
:105730000281818100003DD3908215208800000005
:1057400000107C005A2E0000000000000000000045
:105750000000000000000000000000000000000049
:105760000000000000000000000000000000000039
:1057700000000000001000000000000040000000D9
:1057800000000100000007141004000000583A0057
:1057900010801000000000000007AC95E000000041
:1057A00000000000000000000000000000000000F9
:1057B00000000000000000000000000000000000E9
:1057C00000000000000000000000000000000000D9
:1057D000169200000020000000000201030169028F
:1057E000050022E703800000091F00000000001EE2
:1057F00039D0C000000000000000000000000000E0
:105800000000000000000000000000000000000098
:105810000000000000000000000000000000000088
:105820000000000000000001000100004000000036
:1058300000000E800010000004397CB90200300026
:10584000F00000000001E04F840024000000000090
:105850000000000000000000000000000000000048
:105860000000000000000100000000000004000033
:105870000000000000000000000400000000000024
:1058800000000000000000407000028102030000E0
:105890003CB2B0000401000000000010002670F0CF
:1058A00000000000000000000000000000000000F8
:1058B00000000000000000000000000000000000E8
:1058C00000000000000000000000000000000000D8
:1058D00000000000000000000000000000000000C8
:1058E000071410000000704F1B00028080000000B1
:1058F000000820C00EA5000000000000000000000D
:105900000000000000000000000000000040000057
:105910000000000100000000000004000000000082
:105920000000000000000400000000000110000062
:105930000000000040000301698001000027A580ED
:10594000000405085E874000901C62E02E00000005
:105950000000000000000000000000000000000047
:105960000000000000000000000000000000000037
:105970000000000000000000000000000000000027
:105980000000001100000000000000000080001076
:10599000000080785CD900000090956D78000400CC
:1059A0000754E5E0200000000000000000000000B7
:1059B00000000000000000000000000000000000E7
:1059C00000000000000000000000000000000000D7
:1059D00000000000000000000008000203F0504832
:1059E0000000000000000000000200000000000BAA
:1059F0000D33CB8000003C006E640000000000000E
:105A00000000000000000000000000000000000096
:105A10000000000000000000000000000000000086
:105A20000000000000000000000000000000000076
:105A300040014006AA56900000000000000000004F
:105A4000000000000300F8116578000002C03F9BD1
:105A5000C000000000000000000000000000000086
:105A60000000000000000000000000000000000036
:105A70000000000000000000000000000000000323
:105A800000001000000000003401490F41700000C8
:105A900003016902C000002503800100008B9BCF39
:105AA000C000000033E8DA00000000000000000041
:105AB00000000000000000000000000000000000E6
:105AC00000000000000000000000000000000000D6
:105AD000000000000000100001E0000000000006CF
